:1000000080313228080008007E14803120007F08EB
:10001000D6008B1A0B1D10288B31B42380312D286C
:100020000B1F1C282100911C1C282000911C1C283F
:100030008B31A72380312D280B1F28282100111C6C
:1000400028282000111C28288C310E2480312D28CE
:100050008B190B1C2D288D31162520005608FF000A
:100060007E100900803134282000EE0157308400D2
:100070000030850017308B311F238031A030840081
:100080000030850027308B311F237E102000873100
:100090007F2F0830840090308500003F2000A000B2
:1000A000013FA100023FA2005708F8005808F900DC
:1000B0005908FA008B31FA23803178082000A30018
:1000C0007908A4007A08A5008231412280312000FD
:1000D0002008CA002108CB002208CC004A08C10031
:1000E0004B08C2004C08C3008F31AF27803120007D
:1000F0004108CD004208CE004308CF004D08F00073
:100100004E08F1004F08F200843138248031720823
:100110002000D9007108D8007008D70001305902BA
:10012000031D982851305802031D9828803057022B
:10013000031CA7288030C7005130C8000130C90017
:100140004708D7024808D83B4908D93B8E283C309D
:10015000F0000030F1000030F2005708F3005808BA
:10016000F4005908F5008E314026803171082000D6
:10017000D1007008D0003C30F8000030F9000030A9
:10018000FA005708F3005808F4005908F500103039
:10019000F0000E30F1000030F2008E314026803148
:1001A0007008FB007108FC007208FD008F316A279F
:1001B000803179082000D3007808D2000030A300F5
:1001C0000030A2000E30A1001030A0005708F4004B
:1001D0005808F5005908F600F7010030F300013027
:1001E000F2005130F1008030F00086314926803134
:1001F00073082000A7007208A6007108A500700807
:10020000A4008531C725803120002108D5002008B1
:10021000D40066085007E6006708513DE70064080F
:100220005207E4006508533DE50062085407E20008
:100230006308553DE300003067023C300319660255
:10024000031C2A293C30E6020030E73B0130E4077A
:100250000030E53D003065023C3003196402031CA8
:1002600039293C30E4020030E53B0130E207003040
:10027000E33D00306302183003196202031C442975
:100280001830E2020030E33B0030D7000030D800E5
:100290000030D900080020003408BA003508BB003F
:1002A0003608BC0003103B0D3C0DBD003D08C000EE
:1002B0003708BA003808BB003908BC0003103B0DF2
:1002C0003C0DBD003D08BF004008031973293F08DD
:1002D000400203187A294003FF3A3F07BA00193059
:1002E0003A02031C7A293708B4003808B5003908E7
:1002F000B60008003F080319080040083F02031831
:1003000089293F03FF3A4007BA0019303A0203181F
:1003100008000630BA003A08BE00B61BBE17B91B6B
:100320003E17B517FF30B405FF30B5050030B605F0
:10033000B817FF30B705FF30B8050030B9053F08E2
:1003400040020318C5290130B735B80DB90D890B26
:10035000A4290130BF023F0840060319C02901301B
:10036000BE023E0807390319C029A3290130B63659
:10037000B50CB40C890BB7290130BA003A08C00794
:1003800040083F060319EA29B62940083F0203182E
:10039000EA290130B435B50DB60D890BCA290130F3
:1003A000C0023F0840060319E6290130BE023E089C
:1003B00007390319E629C9290130B936B80CB70C39
:1003C000890BDD290130BA003A08BF0740083F0613
:1003D000031DDC29BE1FFC29FF30B406FF30B50623
:1003E000FF30B6060130B407003003180130B507FE
:1003F000003003180130B6073E1F0E2AFF30B70643
:10040000FF30B806FF30B9060130B70700300318D7
:100410000130B807003003180130B907BE013408B5
:10042000B7073508B83D3608B93DB91F292AFF304E
:10043000B706FF30B806FF30B9060130B707003005
:1004400003180130B807003003180130B907BE01A6
:10045000BE0A3708F0003808F1003908F2004008F9
:10046000BA003A08F3003E08BB003B08F4008731AD
:100470001B2770082000B4007108B5007208B60090
:10048000080020002008A6002108A7002208A800D4
:100490000310270D280DA9002908AA002A08031D0A
:1004A000582A0030A0000030A1000030A20008004F
:1004B0002308A6002408A7002508A8000310270D7C
:1004C000280DA9002908AF002F08031D6E2A00304F
:1004D000A0000030A1000030A20008002F087B3EE1
:1004E000A6002608AA072008A6002108A7002208BF
:1004F000A8001030A836A70CA60C890B7A2A26086B
:10050000A9002908AF002308A6002408A700250891
:10051000A8001030A836A70CA60C890B8A2A26083A
:10052000A9002908AF068030A6002608AF05A1174C
:10053000A417FF30A305FF30A4050030A505003047
:10054000AB000030AC000030AD000730A60026083C
:10055000AE00201CB12A2308AB072408AC3D2508B7
:10056000AD3D0130A236A10CA00C890BB22A01309E
:10057000A335A40DA50D890BB82A0130AE02031DC9
:10058000A92A0930A6002608AE00201CCD2A23087F
:10059000AB072408AC3D2508AD3D0130A236A10CC7
:1005A000A00C890BCE2A0130AD36AC0CAB0C890BFC
:1005B000D42A0130AE02031DC52A2B08F0002C08F6
:1005C000F1002D08F2002A08A6002608F3002F08E3
:1005D000A7002708F40087311B2770082000A0001F
:1005E0007108A1007208A200080080302300920068
:1005F00091011517151400000000230014082100B4
:10060000CA00230013082100C9000630840090307E
:100610008500003FC700013FC8004A084806031D87
:10062000132B49084706031D052B80302300920039
:100630000130910015171514000000002300140864
:100640002100CC00230013082100CB0004308400DB
:1006500090308500003FC700013FC8004C084806A5
:10066000031D342B4B084706031D262B8030230027
:1006700092000230910015171514000000002300AD
:1006800014082100CE00230013082100CD00023001
:10069000840090308500003FC700013FC8004E082D
:1006A0004806031D552B4D084706031D472B803078
:1006B000230092000330910015171514000000006C
:1006C000230014082100D000230013082100CF00CC
:1006D0000030840090308500003FC700013FC80013
:1006E00050084806031D762B4F084706031D682B4C
:1006F0008030230092000630910015171514000079
:100700000000230014082100D20023001308210058
:10071000D1005208C8005108C7000530C836C70CC0
:10072000890B8E2B4708D1004808D2000B3084007B
:1007300090308500003FC700013FC80048085206BE
:10074000031DA42B4708510603190800962B0B170D
:10075000210019088739503899001A1EAD2BFC303A
:1007600099059A1EB12B200018112100101190102C
:100770001010220010155F30F0000D30F1008A31AA
:10078000E3228331D330F0000730F1008A31BF22F9
:1007900083319A30F0000B30F1008A31E922833145
:1007A0008C30F0000C30F1008A31C5228331AD303D
:1007B000F0000C30F1008A31CB228331F230F000AE
:1007C0000C30F1008A31D12283318430F0000D30B9
:1007D000F1008A31D72283312E30F0000B30F10046
:1007E0008A31DD22833121000F128F120F130F1077
:1007F0008F100F118F118F138E110E1222008E1178
:100800000E1221000D148D140D150D168E160C14DC
:100810008C160C150D138D138C108E1010100E17D6
:100820000E1122000E1121008D158C1122001011C5
:1008300010108C112700151495141515951520000E
:100840006E108B122100911095128A31AB228331E8
:10085000210011108031492083318C31CE24833125
:100860008531432583318D313A252100111408004B
:100870007008F4007108F5007208F6000310750D99
:10088000760DF7007708FD007D08031D502C003021
:10089000F3000030F2000030F1000030F0000800FA
:1008A0007008F4007108F5007208F6001730F6368B
:1008B000F50CF40C890B572C7408F7007708F80036
:1008C000F117FF30F005FF30F1050030F205700838
:1008D000F9007108FA007208FB00FC018E30FD027D
:1008E000FD1F8E2C7D08803A8F3E0318802C00302F
:1008F000F3000030F2000030F1000030F00008009A
:100900000130FC36FB0CFA0CF90C890B812C013000
:10091000F4007408FD070319A72C802C18307D0201
:10092000031CA42C0030F3000030F2000030F10072
:100930000030F00008000130F935FA0DFB0DFC0D18
:10094000890B9C2C0130FD027D08031D9B2C78082F
:100950000319B52CF909FA09FB09FC09F90A03196D
:10096000FA0A0319FB0A0319FC0A7C08F3007B0846
:10097000F2007A08F1007908F00008008B170B17D5
:100980008B31D523843121001011901010102200DA
:1009900010158231F52284315F302100C7000D30FF
:1009A000C8008B310D238431D3302100C7000730BC
:1009B000C8008B31132384319A302100C7000B30DB
:1009C000C8008B31192384318C302100C7000C30D2
:1009D000C8008A31EF228431AD302100C7000C30CD
:1009E000C8008A31F5228431F2302100C7000C3072
:1009F000C8008A31FB22843184302100C7000D30C9
:100A0000C8008B31012384312E302100C7000B3008
:100A1000C8008B313723843121000F128F120F133E
:100A20000F108F100F118F118F138E110E122200C5
:100A30008E110E1221000D148D140D150D168E162B
:100A40000C148C160C1527009512941221000D130E
:100A50008D138C108E1010100E172000181121000D
:100A60000E1122000E1121008D158C1122008C1107
:100A70008B12210091108A31B42220009A012200A9
:100A80001011101008000A30F8000030F9002000A2
:100A90006708FB006608FA008D31AB2585317908BF
:100AA0002000DF007808DE000A30F8000030F9008E
:100AB0000A30F0000030F1006708F3006608F20029
:100AC0008D31D72585317108FB007008FA008D3112
:100AD000AB25853179082000DD007808DC000A307C
:100AE000F8000030F9006508FB006408FA008D3159
:100AF000AB25853179082000DB007808DA000A3060
:100B0000F8000030F9000A30F0000030F10065080C
:100B1000F3006408F2008D31D72585317108FB00A0
:100B20007008FA008D31AB25853179082100B300BA
:100B30007808B2000A30F8000030F900200061089F
:100B4000FB006008FA008D31AB2585317908210062
:100B5000B1007808B0000A30F8000030F9000A301F
:100B6000F0000030F10020006108F3006008F2009E
:100B70008D31D72585317108FB007008FA008D3161
:100B8000AB2579082100AF007808AE0008002000EE
:100B9000A901A31FD82DA009A109A209A309A00A90
:100BA0000319A10A0319A20A0319A30AA901A90A90
:100BB000A71FE92DA409A509A609A709A40A0319D5
:100BC000A50A0319A60A0319A70A0130FB007B082E
:100BD000A9060030AD000030AC000030AB000030A2
:100BE000AA0023082204210420040319322EA8019C
:100BF000A80AA31B072E0130A035A10DA20DA30D3D
:100C0000890BFC2D0130FB007B08A807F92D013072
:100C1000AA35AB0DAC0DAD0D890B082E23082702AC
:100C2000031D1C2E22082602031D1C2E210825024E
:100C3000031D1C2E20082402031C272E2008A402BA
:100C40002108A53B2208A63B2308A73B2A14013014
:100C5000A336A20CA10CA00C890B282E0130A802EF
:100C6000031D072E29080319402EAA09AB09AC0958
:100C7000AD09AA0A0319AB0A0319AC0A0319AD0A94
:100C80002D08A3002C08A2002B08A1002A08A00010
:100C90000800FA01F71F592EF409F509F609F709BA
:100CA000F40A0319F50A0319F60A0319F70AFA01F7
:100CB000FA0AF31F662EF009F109F209F309F00AA6
:100CC0000319F10A0319F20A0319F30A73087204EB
:100CD0007104700403199F2EF901F90AF31B7C2E8D
:100CE0000130F035F10DF20DF30D890B712E01304D
:100CF000F8007808F9076E2E73087702031D8A2E14
:100D000072087602031D8A2E71087502031D8A2E51
:100D100070087402031C942E7008F4027108F53BED
:100D20007208F63B7308F73B0130F336F20CF10C16
:100D3000F00C890B952E0130F902031D7C2E7A08E8
:100D40000319AD2EF409F509F609F709F40A031998
:100D5000F50A0319F60A0319F70A7708F30076086B
:100D6000F2007508F1007408F000080022009001FC
:100D700080308F0002308C008D018E0121009001A7
:100D8000F5308C00FF308D00E3308E008F01023093
:100D900023008E008D018F0190018C01083024000A
:100DA0009000C0308D002100951322009D01270086
:100DB00016109610161196111612961215149514F7
:100DC00015159515151695161410941014119411E7
:100DD000141694169F302100C7000A30C8008A31CB
:100DE000EF228631A0302100C7000A30C8008A31C6
:100DF000F5228631A1302100C7000A30C8008A31AF
:100E0000FB228631A2302100C7000A30C8008B3196
:100E100001238631A3302100C7000A30C8008B317E
:100E200037238631A4302100C7000A30C8008B3137
:100E300007238B15080073080319232F7208710408
:100E40007004031D342F0030F0000030F10000303A
:100E5000F20008000130F5007508F3070130F236A2
:100E6000F10CF00C890B2F2FFE30720503194D2F5A
:100E70002A2F0130F5007508F3070130F007003024
:100E800003180130F107003003180130F207013078
:100E9000F236F10CF00C890B482FFF307205031964
:100EA0005A2F392F0130F3020130F035F10DF20DD8
:100EB000890B552FF11B602F023073020318522F3C
:100EC0007318682FFF30F0057F30F105FF30F20511
:100ED0000310F30C7308F500F601F7011030F53537
:100EE000F60DF70D890B6F2F7508F0047608F104E5
:100EF0007708F204740803190800F21708002000AC
:100F00006E18852F8431BE24873120006E18CF2FB4
:100F10008C1A0C1C932F0C198E1F932F8E1A932F43
:100F200022001011A62F031020006E1C03140030A5
:100F3000093D01392100D300D30DD30D2200100843
:100F400021005306FB39530622009000210011189E
:100F5000BD2F4D302100D4001930D3004F30890B04
:100F6000AF2FD30BAF2FD40BAF2F003221001118AE
:100F7000BD2F11148A31AE22873120008E1EC42F5E
:100F800022008C111015101022008C1DCA2F220077
:100F90001014852F22001010852F63000000200000
:100FA0006E1C852FCD2F03102200901C0314031CF0
:100FB000DC2F22009014DE2F22009010901CE32FD3
:100FC00022008E15E52F22008E11901CEA2F2200A0
:100FD0000E16EC2F22000E1220000D1CF32F0130F4
:100FE000E6070030E73D8C316D2487318C31CE240B
:100FF00087318531432587318D313A250800080036
:101000008E31782E8E317C2E8E31812E8E31862E31
:0C1010008E318B2E8E31902E8E31952E5D
:10153E000800080008000800080008002000181025
:10154E00080020001C11080020001C1508002000B7
:10155E001814080020001C15080020001C1108009B
:10156E005030210099000800163021009700080025
:10157E0071082100C1007008C00008007108210028
:10158E00BD007008BC00080071082100BB00700887
:10159E00BA00080071082100B9007008B8000800F0
:1015AE0071082100B7007008B6000800710820000D
:1015BE00ED007008EC00080071082100C5007008ED
:1015CE00C400080071082100BF007008BE000800AA
:1015DE0021004808BD004708BC000800210048084B
:1015EE00BB004708BA00080021004808B9004708A8
:1015FE00B800080021004808B7004708B6000800E8
:10160E0021004808B5004708B4000800210048082A
:10161E00C5004708C400080021004808C10047085B
:10162E00C000080021004808BF004708BE0008009F
:10163E00640080010131890B202B00342000330817
:10164E0032043104031908008030B306080020006C
:10165E006E18342B8E31B02608008331A723080074
:10166E00210048082000ED00210047082000EC0072
:10167E00080001302000D707003003180130D807CA
:10168E00003003180130D907080021003C083D0442
:10169E000319562B3D088A003C080A008B3127009F
:1016AE001610080021003A083B040319632B3B086F
:1016BE008A003A080A008B31270096100800210094
:1016CE00380839040319702B39088A0038080A00C3
:1016DE008B31270016110800210036083704031934
:1016EE007D2B37088A0036080A008B3127009611A9
:1016FE00080020006C086D0403198A2B6D088A00FF
:10170E006C080A008B3127001612080021003408DD
:10171E0035040319972B35088A0034080A008B31DB
:10172E002700961208008A31A8228B3120009A01D8
:10173E008B31C42301302000EA070030EB3D080056
:10174E002000911021003E083F04031908003F08B5
:10175E008A003E080A008B3108000B112100460852
:10176E00200095002100440845040319080045088F
:10177E008A0044080A008B31080022008F172000CF
:10178E006A35A03E8600870122000F080106F03957
:10179E0001068F0070308F048F1308008631B62635
:1017AE008B318A31B7228B318A31BB228B318B310F
:1017BE00E7238B318C3151248B318C31232408005B
:1017CE00133020009C0048309B009A01911021009C
:1017DE009114FF30C7000730C8008B3119238B31AD
:1017EE008A31B12208007808F0007908F1007A08F1
:1017FE00F2008E30FB007B08F300F40187311B27CB
:10180E007008F8007108F9007208FA00080020004C
:10181E0011102100430820009700210042082000EB
:10182E0096002100400841040319080041088A006F
:10183E0040080A008C31080021001508C0391538FF
:10184E00950016302000950016302100C900490879
:10185E00C6000B118B160230C7000030C8008B314A
:10186E000D2308008E31772620006808F000F00E58
:10187E0022000F0870068F3970068F0020006A351F
:10188E00A03E8600870122000F080106F0390106EE
:10189E008F00080084302000980099018030970056
:1018AE00960117082100C300200016082100C2006F
:1018BE0020001110210011140330C7000030C800A1
:1018CE008B3113238C318A31AE2208003C3020003C
:1018DE0066066704031D792CE601E7010130E40773
:1018EE000030E53D3C3064066504031D842CE401A4
:1018FE00E5010130E2070030E33D18306206630473
:10190E00031D0800E201E301080020000D18080085
:10191E002100111022008E150E1627001510013011
:10192E002000E6070030E73D3C3066066704031DE5
:10193E00A22CE601E701853143258C318D313A2504
:10194E008C31270015148A31A522080020008D182D
:10195E0008002100111022008E150E16270095107A
:10196E0001302000E4070030E53D3C30640665049C
:10197E00031DC32CE401E501853143258C318D31E6
:10198E003A258C31270095148A31A52208002000B3
:10199E000E1FED2C62086304031DDA2C0C30E000E0
:1019AE000030E1000800003063020D3003196202BE
:1019BE00031CE82C6208F43EE000FF30633DE100BA
:1019CE0008006308E1006208E00008006308E10017
:1019DE006208E000080020000D1908002100111017
:1019EE0022008E150E162700151101302000E20779
:1019FE000030E33D183062066304031D082DE2013A
:101A0E00E3018C31CE248C31853143258C318D31DF
:101A1E003A258C31270015158A31A522080027009A
:101A2E00161C1C2D8B314C238D312700961C222D1C
:101A3E008B3159238D312700161D282D8B316623AE
:101A4E008D312700961D2E2D8B3173238D3127005E
:101A5E00161E342D8B3180238D312700961E0800E3
:101A6E008B318D23080020005F082100A10020008B
:101A7E005E082100A00020005D082100A3002000C8
:101A8E005C082100A20020005B082100A5002000B8
:101A9E005A082100A4003308A7003208A600310816
:101AAE00A9003008A8002F08AB002E08AA000800D5
:101ABE0022008F17063020006A066B04031D692D65
:101ACE00EA01EB010E1F7A2D05306A066B04031D29
:101ADE007A2D003063020C3003196202031C7A2D3A
:101AEE0022000E157C2D22000E118C3139248D31E1
:101AFE0022008F138A31AB22080020008D190800B6
:101B0E0022008C19A12D031020008E1E0314031C1D
:101B1E00932D22008C15952D22008C11101420006F
:101B2E000C1D962D8B16210091142700151495145B
:101B3E00151508008C1110108B1221009110270022
:101B4E001510951015110800780879040319D22D77
:101B5E00FD01FD0AF91BBD2D0130F835F90D890B7C
:101B6E00B42D0130FC007C08FD07B12D79087B02F5
:101B7E00031DC32D78087A02031CC92D7808FA02BA
:101B8E007908FB3B0130F936F80C890BCA2D013070
:101B9E00FD02031DBD2D7B08F9007A08F800080030
:101BAE00F501F601700871040319062EF701F70A04
:101BBE00F11BEB2D0130F035F10D890BE22D0130CB
:101BCE00F4007408F707DF2D0130F535F60D890B9B
:101BDE00EC2D71087302031DF62D70087202031CA2
:101BEE00FD2D7008F2027108F33B75140130F136C9
:101BFE00F00C890BFE2D0130F702031DEB2D76083C
:101C0E00F1007508F0000800720871047004031DDD
:101C1E00172E7308860087010030C03FC13F0800B1
:101C2E0072087F39F400F501F435F50D730886005E
:101C3E0087017408C03F7508C13F710D710D0139E0
:101C4E00F400F501730886008701740881044131A0
:101C5E00750881047308860087018230810741313F
:101C6E00FF30813D7F31720880393F38F200F11329
:101C7E0008007208710470040319702EF701F70A38
:101C8E00F21B542E0130F035F10DF20D890B4A2E58
:101C9E000130F6007608F707472E72087502031D0D
:101CAE005E2E71087402031D5E2E70087302031CF3
:101CBE00662E7008F3027108F43B7208F53B013092
:101CCE00F236F10CF00C890B672E0130F702031D72
:101CDE00542E7308F0007408F1007508F200080025
:101CEE009F2E2000E801E90108000430E8000030D2
:101CFE00E90008000230E8000030E9000800063074
:101D0E00E8000030E90008000130E8000030E9008A
:101D1E0008000530E8000030E90008000330E80054
:101D2E000030E90008000730E8000030E900080044
:101D3E0020006B08003A0319A52E9A2E6A0884001B
:101D4E000730040203189A2E88310435003E8200B3
:101D5E00080027001510951015119511220010106E
:101D6E00901010118E110E120E118F308F05F03053
:101D7E008F058F17FD3021008C003F308D00FD3018
:101D8E008E00FF308F000F30900022008C1120004B
:101D9E006E148B122100911095168A31A8228E3165
:101DAE00200018154030F0000B30F1008A31BF22B0
:101DBE008E318730210099059A1CE32E0330990449
:101DCE009A1CE72E6300000008002000A7018E3049
:101DDE00A4002408A600A31F012FA009A109A2098F
:101DEE00A309A00A0319A10A0319A20A0319A30A37
:101DFE00A701A70AFF3023050319112F0130A336BF
:101E0E00A20CA10CA00C890B062F0130A4002408F3
:101E1E00A607012F2008F0002108F1002208F20089
:101E2E002608A4002408F3002708A5002508F400BE
:101E3E0087311B2770082000A0007108A1007208CE
:101E4E00A200080020002808F0002908F1002A0846
:101E5E00F2002F30AB002B08F3008E310B268F31A2
:101E6E002000B01F412F0030A8000030A900003024
:101E7E00AA00080000303002153003192F02031893
:101E8E0008002808F0002908F1002A08F200843121
:101E9E0038248F3173082000A3007208A200710845
:101EAE00A1007008A0008E31EC2620002008AC00A6
:101EBE002108AD002208AE002C08A8002D08A900AC
:101ECE002E08AA00080000302000A1000030A20059
:101EDE000030A3007A08790478040319A82FA4010E
:101EEE00A40AFA1B852F0130F835F90DFA0D890B6E
:101EFE007B2F0130A0002008A407782F0130A135D8
:101F0E00A20DA30D890B862F7A087D02031D952F36
:101F1E0079087C02031D952F78087B02031C9E2FE7
:101F2E007808FB027908FC3B7A08FD3B211401304E
:101F3E00FA36F90CF80C890B9F2F0130A402031D01
:101F4E00852F2108F8002208F9002308FA0008005E
:101F5E0020004108B4004208B5004308B60041080D
:101F6E00A8004208A9004308AA008F3129278F3103
:101F7E0020002808B1002908B2002A08B3008B31CE
:101F8E0025238F3120003108B7003208B8003308FE
:101F9E00B90081314B218F3120003408C40035083F
:101FAE00C5003608C6004408B4004508B50046080A
:101FBE00B6004108B7004208B8004308B9008131A5
:101FCE004B218F3120003408C1003508C20036087D
:101FDE00C3004108A8004208A9004308AA008F3197
:101FEE00292720002808C1002908C2002A08C3009A
:101FFE0008004E340034493400345834003404346C
:0C200E000034AD3480343F34BF34003463
:020000040001F9
:080000000400580049004E0005
:04000E00E2FFFFD33B
:00000001FF
